:020000040800F2
:1000000000280020511B0008CD150008D31500085A
:10001000D9150008DF150008E515000800000000EC
:10002000000000000000000000000000EB150008C8
:10003000F715000800000000031600080F1600085E
:10004000991B0008991B0008991B0008991B0008C0
:10005000991B0008991B0008991B0008991B0008B0
:10006000991B0008991B0008991B0008991B0008A0
:10007000991B0008991B0008991B0008991B000890
:10008000991B0008991B0008991B0008991B000880
:10009000991B0008991B0008991B0008991B000870
:1000A000991B0008991B0008991B0008991B000860
:1000B0001D160008991B000800000000991B00088D
:1000C000991B00080000000000000000991B0008B8
:1000D00000000000991B0008991B000800000000A8
:1000E000991B0008991B0008991B000800000000DC
:1000F0000000000000000000000000000000000000
:0C01000000000000000000005FF808F1A3
:10010C0010B5054C237833B9044B13B10448AFF345
:10011C0000800123237010BD60000020000000004F
:10012C00B831000808B5034B1BB103490348AFF3C2
:10013C00008008BD0000000064000020B8310008F9
:10014C0080B582B000AF78607B68002B22D1002292
:10015C000121BD4802F01FF800220221BA4802F02A
:10016C001AF800220421B84802F015F800220821E0
:10017C00B54802F010F800221021B34802F00BF839
:10018C0000222021B04802F006F801224021AE489E
:10019C0002F001F87B68012B22D101220121AA482F
:1001AC0001F0F9FF00220221A74801F0F4FF002220
:1001BC000421A54801F0EFFF01220821A24801F01B
:1001CC00EAFF01221021A04801F0E5FF01222021C5
:1001DC009D4801F0E0FF012240219B4801F0DBFF2C
:1001EC007B68022B22D100220121974801F0D3FF1A
:1001FC0000220221944801F0CEFF012204219248F2
:10020C0001F0C9FF002208218F4801F0C4FF002231
:10021C0010218D4801F0BFFF012220218A4801F0F6
:10022C00BAFF00224021884801F0B5FF7B68032B00
:10023C0022D100220121844801F0ADFF00220221CD
:10024C00814801F0A8FF002204217F4801F0A3FFA0
:10025C00002208217C4801F09EFF012210217A48DF
:10026C0001F099FF01222021774801F094FF002230
:10027C004021754801F08FFF7B68042B22D10122AD
:10028C000121714801F087FF002202216E4801F024
:10029C0082FF002204216C4801F07DFF012208211D
:1002AC00694801F078FF01221021674801F073FFC3
:1002BC0000222021644801F06EFF00224021624898
:1002CC0001F069FF7B68052B22D1002201215E48D9
:1002DC0001F061FF012202215B4801F05CFF00226A
:1002EC000421594801F057FF00220821564801F01B
:1002FC0052FF01221021544801F04DFF0022202111
:10030C00514801F048FF002240214F4801F043FFC3
:10031C007B68062B22D1002201214B4801F03BFFC8
:10032C0001220221484801F036FF002204214648F0
:10033C0001F031FF00220821434801F02CFF00227C
:10034C001021414801F027FF002220213E4801F0F6
:10035C0022FF002240213C4801F01DFF7B68072B47
:10036C0022D100220121384801F015FF0022022180
:10037C00354801F010FF00220421334801F00BFF37
:10038C0001220821304801F006FF012210212E48DD
:10039C0001F001FF012220212B4801F0FCFE01227B
:1003AC004021294801F0F7FE7B68082B22D100225E
:1003BC000121254801F0EFFE00220221224801F024
:1003CC00EAFE00220421204801F0E5FE002208216B
:1003DC001D4801F0E0FE002210211B4801F0DBFE5D
:1003EC0000222021184801F0D6FE00224021164898
:1003FC0001F0D1FE7B68092B22D100220121124889
:10040C0001F0C9FE002202210F4801F0C4FE0022B7
:10041C0004210D4801F0BFFE002208210A4801F01A
:10042C00BAFE01221021084801F0B5FE002220215D
:10043C00054801F0B0FE00224021034801F0ABFE5C
:10044C0000BF0837BD4680BD000C014080B582B0AE
:10045C0000AF78607B68002B28D100228021CF4828
:10046C0001F099FE00224FF48071CC4801F093FE0C
:10047C0000224FF40071C94801F08DFE00224FF4A8
:10048C008061C64801F087FE00224FF40061C3482A
:10049C0001F081FE00224FF48051C04801F07BFE38
:1004AC0001224FF40051BD4801F075FE7B68012B11
:1004BC0028D101228021B94801F06DFE00224FF4B1
:1004CC008071B64801F067FE00224FF40071B3480A
:1004DC0001F061FE01224FF48061B04801F05BFE37
:1004EC0001224FF40061AD4801F055FE01224FF49A
:1004FC008051AA4801F04FFE01224FF40051A74849
:10050C0001F049FE7B68022B28D100228021A348F0
:10051C0001F041FE00224FF48071A04801F03BFE37
:10052C0001224FF400719D4801F035FE00224FF47A
:10053C0080619A4801F02FFE00224FF40061974829
:10054C0001F029FE01224FF48051944801F023FE62
:10055C0000224FF40051914801F01DFE7B68032BE3
:10056C0028D1002280218D4801F015FE00224FF485
:10057C0080718A4801F00FFE00224FF40071874809
:10058C0001F009FE00224FF48061844801F003FE63
:10059C0001224FF40061814801F0FDFD01224FF46E
:1005AC0080517E4801F0F7FD00224FF400517B484A
:1005BC0001F0F1FD7B68042B28D1012280217748C2
:1005CC0001F0E9FD00224FF48071744801F0E3FD65
:1005DC0000224FF40071714801F0DDFD01224FF44F
:1005EC0080616E4801F0D7FD01224FF400616B4829
:1005FC0001F0D1FD00224FF48051684801F0CBFD91
:10060C0000224FF40051654801F0C5FD7B68052BB5
:10061C0028D100228021614801F0BDFD01224FF458
:10062C0080715E4801F0B7FD00224FF400715B4809
:10063C0001F0B1FD00224FF48061584801F0ABFD90
:10064C0001224FF40061554801F0A5FD00224FF442
:10065C008051524801F09FFD00224FF400514F4849
:10066C0001F099FD7B68062B28D1002280214B4894
:10067C0001F091FD01224FF48071484801F08BFD8F
:10068C0000224FF40071454801F085FD00224FF423
:10069C008061424801F07FFD00224FF400613F4829
:1006AC0001F079FD00224FF480513C4801F073FDBC
:1006BC0000224FF40051394801F06DFD7B68072B87
:1006CC0028D100228021354801F065FD00224FF42D
:1006DC008071324801F05FFD00224FF400712F4809
:1006EC0001F059FD01224FF480612C4801F053FDBB
:1006FC0001224FF40061294801F04DFD01224FF415
:10070C008051264801F047FD01224FF40051234847
:10071C0001F041FD7B68082B28D1002280211F4865
:10072C0001F039FD00224FF480711C4801F033FDBB
:10073C0000224FF40071194801F02DFD00224FF4F6
:10074C008061164801F027FD00224FF40061134828
:10075C0001F021FD00224FF48051104801F01BFDE7
:10076C0000224FF400510D4801F015FD7B68092B58
:10077C002BD100228021094801F00DFD00224FF4FD
:10078C008071064801F007FD00224FF40071034808
:10079C0001F001FD00224FF4806101E0000C0140EA
:1007AC000C4801F0F8FC01224FF40061094801F0FB
:1007BC00F2FC00224FF48051064801F0ECFC0022C0
:1007CC004FF40051034801F0E6FC00BF0837BD466A
:1007DC0080BD00BF000C014080B500AF2C4B1B78D6
:1007EC00022B33D0022B4CDC002B02D0012B12D06D
:1007FC0047E001220221274801F0CDFC012204210F
:10080C00244801F0C8FC224B01221A704FF47A7074
:10081C0000F0B6FD3AE0002202211E4801F0BBFCBC
:10082C00012204211B4801F0B6FC1B4B1B68184627
:10083C00FFF786FC194B1B68012B24D1144B0222A9
:10084C001A704FF47A7000F09BFD1CE0012202211B
:10085C00104801F0A0FC002204210E4801F09BFC82
:10086C000D4B5B681846FFF76BFC0C4B1B68012BA0
:10087C000BD1074B01221A704FF47A7000F080FDF7
:10088C0003E000BF02E000BF00E000BF00BF80BD7E
:10089C007C0000200008014080000020F4000020B3
:1008AC0080B500AF2C4B1B78022B33D0022B4CDCC9
:1008BC00002B02D0012B12D047E00122082127483F
:1008CC0001F069FC01221021244801F064FC224B48
:1008DC0001221A704FF47A7000F06EFD3AE000229B
:1008EC0008211E4801F057FC012210211B4801F081
:1008FC0052FC1B4B1B681846FFF7A8FD194B1B68D5
:10090C00012B24D1144B02221A704FF47A7000F090
:10091C0053FD1CE001220821104801F03CFC002290
:10092C0010210E4801F037FC0D4B5B681846FFF7A1
:10093C008DFD0C4B1B68012B0BD1074B01221A7040
:10094C004FF47A7000F038FD03E000BF02E000BF06
:10095C0000E000BF00BF80BD7D000020000801400A
:10096C0088000020FC00002080B483B000AF7860C9
:10097C007B680D4A82FB03129210DB17D31A0B4AC9
:10098C0013607968084B83FB01239A10CB17D21A9A
:10099C0013469B0013445B00CA1A044B5A6000BFF9
:1009AC000C37BD4680BC70476766666680000020C9
:1009BC0080B483B000AF78607B680D4A82FB031271
:1009CC009210DB17D31A0B4A13607968084B83FB20
:1009DC0001239A10CB17D21A13469B0013445B00C9
:1009EC00CA1A044B5A6000BF0C37BD4680BC704716
:1009FC00676666668800002080B400AF064B1B68F3
:100A0C00012B04D1044B00221A60012300E00023C7
:100A1C001846BD4680BC70479000002080B400AFE3
:100A2C00034B01221A6000BFBD4680BC704700BF5B
:100A3C009000002080B500AF234B1B68234A136045
:100A4C00234B1B68204A13604FF40051214801F0DE
:100A5C008BFB03461A461E4B1A601C4B1A681A4B2A
:100A6C001B689A422DD1184B1A68194B1B689A4275
:100A7C0027D1194B1A68164B1B689A420ED0144B8F
:100A8C001B68154A1360124B1B68002B19D1FFF71A
:100A9C00C5FF124B4FF4FA721A6012E00F4B1B6831
:100AAC00013B0E4A13600D4B1B68002B09D1084B00
:100ABC001B68002B01D1FFF7B1FF084B4FF4FA7202
:100ACC001A6000BF80BD00BF0400002000000020A1
:100ADC0008000020001001400C0000201000002035
:100AEC0080B400AF064B1B68012B04D1044B0022D1
:100AFC001A60012300E000231846BD4680BC7047F5
:100B0C009400002080B400AF034B01221A6000BF98
:100B1C00BD4680BC704700BF9400002080B500AF7C
:100B2C00234B1B68234A1360234B1B68204A13601A
:100B3C004FF48041214801F017FB03461A461E4B27
:100B4C001A601C4B1A681A4B1B689A422DD1184B11
:100B5C001A68194B1B689A4227D1194B1A68164B05
:100B6C001B689A420ED0144B1B68154A1360124B2B
:100B7C001B68002B19D1FFF7C5FF124B4FF4FA720B
:100B8C001A6012E00F4B1B68013B0E4A13600D4BB1
:100B9C001B68002B09D1084B1B68002B01D1FFF7F8
:100BAC00B1FF084B4FF4FA721A6000BF80BD00BF52
:100BBC0018000020140000201C0000200010014030
:100BCC00200000202400002080B400AF064B1B68DE
:100BDC00012B04D1044B00221A60012300E00023F6
:100BEC001846BD4680BC70479800002080B400AF0A
:100BFC00034B01221A6000BFBD4680BC704700BF8A
:100C0C009800002080B500AF234B1B68234A13606B
:100C1C00234B1B68204A13604FF40041214801F01C
:100C2C00A3FA03461A461E4B1A601C4B1A681A4B41
:100C3C001B689A422DD1184B1A68194B1B689A42A3
:100C4C0027D1194B1A68164B1B689A420ED0144BBD
:100C5C001B68154A1360124B1B68002B19D1FFF748
:100C6C00C5FF124B4FF4FA721A6012E00F4B1B685F
:100C7C00013B0E4A13600D4B1B68002B09D1084B2E
:100C8C001B68002B01D1FFF7B1FF084B4FF4FA7230
:100C9C001A6000BF80BD00BF2C000020280000207F
:100CAC0030000020001001403400002038000020EB
:100CBC0080B500AF204B1B78022B24D0022B33DCE9
:100CCC00002B02D0012B0DD02EE0012220211B483D
:100CDC0001F061FA184B01221A704FF47A7000F08F
:100CEC0033FB26E000222021144801F054FA144B67
:100CFC001B68012B1AD1104B02221A704FF47A7018
:100D0C0000F022FB12E0012220210C4801F043FAF2
:100D1C000B4B1B68012B0BD1074B01221A704FF4A4
:100D2C007A7000F011FB03E000BF02E000BF00E0AE
:100D3C0000BF00BF80BD00BF9C0000200008014028
:100D4C00EC00002080B500AF4A4B1B78022B5DD025
:100D5C00022B00F38880002B02D0012B29D082E0DB
:100D6C0001224021444801F016FA01228021424818
:100D7C0001F011FA01224FF480713F4801F00BFA97
:100D8C0001224FF400713C4801F005FA01224FF4A6
:100D9C008061394801F0FFF901224FF400613648B7
:100DAC0001F0F9F9334B01221A70FA2000F03CFBE8
:100DBC005EE000224021304801F0EDF90122802153
:100DCC002D4801F0E8F901224FF480712A4801F016
:100DDC00E2F900224FF40071274801F0DCF90122FE
:100DEC004FF48061244801F0D6F901224FF40061E0
:100DFC00214801F0D0F9214B1B68012B35D11D4B3B
:100E0C0002221A70FA2000F00FFB2EE00122402182
:100E1C00194801F0C0F901228021174801F0BBF9F3
:100E2C0001224FF48071144801F0B5F901224FF4FE
:100E3C000071114801F0AFF901224FF480610E48A6
:100E4C0001F0A9F901224FF400610B4801F0A3F95C
:100E5C000A4B1B68012B0AD1064B01221A70FA208F
:100E6C0000F0E2FA03E000BF02E000BF00E000BFC8
:100E7C0000BF80BD9D000020000801400C01002037
:100E8C0080B500AF4A4B1B78022B5DD0022B00F3D0
:100E9C008880002B02D0012B29D082E00122402136
:100EAC00444801F078F901228021424801F073F99D
:100EBC0001224FF480713F4801F06DF901224FF48B
:100ECC0000713C4801F067F901224FF48061394808
:100EDC0001F061F901224FF40061364801F05BF931
:100EEC00334B01221A70FA2000F09EFA5EE00122C8
:100EFC004021304801F04FF9002280212D4801F0AB
:100F0C004AF901224FF480712A4801F044F9012278
:100F1C004FF40071274801F03EF900224FF4806134
:100F2C00244801F038F901224FF40061214801F006
:100F3C0032F9214B1B68012B35D11D4B02221A7043
:100F4C00FA2000F071FA2EE001224021194801F03C
:100F5C0022F901228021174801F01DF901224FF4DA
:100F6C008071144801F017F901224FF400711148F7
:100F7C0001F011F901224FF480610E4801F00BF9D8
:100F8C0001224FF400610B4801F005F90A4B1B6874
:100F9C00012B0AD1064B01221A70FA2000F044FAF8
:100FAC0003E000BF02E000BF00E000BF00BF80BD57
:100FBC009E000020000801400C01002080B500AF0D
:100FCC004A4B1B78022B5DD0022B00F38880002B40
:100FDC0002D0012B29D082E001224021444801F0AB
:100FEC00DAF801228021424801F0D5F801224FF4B1
:100FFC0080713F4801F0CFF801224FF400713C485A
:10100C0001F0C9F801224FF48061394801F0C3F8AE
:10101C0001224FF40061364801F0BDF8334B012238
:10102C001A70FA2000F000FA5EE0012240213048EC
:10103C0001F0B1F8012280212D4801F0ACF800221A
:10104C004FF480712A4801F0A6F801224FF4007188
:10105C00274801F0A0F801224FF48061244801F0E8
:10106C009AF800224FF40061214801F094F8214BCA
:10107C001B68012B35D11D4B02221A70FA2000F08F
:10108C00D3F92EE001224021194801F084F8012205
:10109C008021174801F07FF801224FF48071144829
:1010AC0001F079F801224FF40071114801F073F846
:1010BC0001224FF480610E4801F06DF801224FF4CB
:1010CC0000610B4801F067F80A4B1B68012B0AD131
:1010DC00064B01221A70FA2000F0A6F903E000BFBB
:1010EC0002E000BF00E000BF00BF80BD9F000020F9
:1010FC00000801400C01002080B500AF00F048FD55
:10110C0000F012F800F098F800F04AF8054801F0E9
:10111C0089FC4FF47A7000F06BF9FFF7C9FD00F011
:10112C00D9FBFAE7A000002080B590B000AF07F122
:10113C00180328220021184602F030F83B1D00222B
:10114C001A605A609A60DA601A610223BB6101234B
:10115C00BB621023FB6200237B6307F11803184664
:10116C0001F032F80346002B01D000F0E7F80F2312
:10117C007B600023BB600023FB6000233B610023EA
:10118C007B613B1D0021184601F0A0FA0346002BA1
:10119C0001D000F0D3F800BF4037BD4680BD000041
:1011AC0080B586B000AF07F1080300221A605A60C0
:1011BC009A60DA603B4600221A605A601D4B4FF071
:1011CC0080421A601B4B41F63F725A60194B002249
:1011DC009A60184B0922DA60164B00221A61154BE3
:1011EC0000229A61134801F0CDFB0346002B01D07D
:1011FC0000F0A4F84FF48053BB6007F108031946C4
:10120C000C4801F063FD0346002B01D000F096F86A
:10121C0000233B6000237B603B461946054801F0E8
:10122C002FFF0346002B01D000F088F800BF1837C1
:10123C00BD4680BDA000002080B588B000AF07F18E
:10124C00100300221A605A609A60DA602F4B9B6977
:10125C002E4A43F0100393612C4B9B6903F010034F
:10126C00FB60FB68294B9B69284A43F0040393619C
:10127C00264B9B6903F00403BB60BB68234B9B6943
:10128C00224A43F008039361204B9B6903F0080347
:10129C007B607B68002240F6FE711D4800F07BFFEE
:1012AC00002243F6FF711B4800F075FF4FF46043BA
:1012BC003B6100237B610123BB6107F110031946DD
:1012CC00154800F0D5FD40F6FE733B6101237B61B0
:1012DC000023BB610223FB6107F1100319460C4884
:1012EC0000F0C6FD43F6FF733B6101237B610023D5
:1012FC00BB610223FB6107F110031946054800F09E
:10130C00B7FD00BF2037BD4680BD00BF00100240B6
:10131C0000080140000C01400010014080B582B073
:10132C0000AF786000F09CF8FFF784FBFFF7F6FB4A
:10133C00FFF768FC00BF0837BD4680BD80B400AF26
:10134C0072B600BFFEE7000080B483B000AF7860D7
:10135C007B68084A82FB03129210DB17D31A064AE9
:10136C001360064B00221A6000BF0C37BD4680BCD0
:10137C00704700BF67666666E8000020EC0000203E
:10138C0080B483B000AF78607B68084A82FB03129C
:10139C009210DB17D31A064A1360064B00221A6010
:1013AC0000BF0C37BD4680BC704700BF67666666E1
:1013BC00F0000020F400002080B483B000AF78600F
:1013CC007B68084A82FB03129210DB17D31A064A79
:1013DC001360064B00221A6000BF0C37BD4680BC60
:1013EC00704700BF67666666F8000020FC000020AE
:1013FC0080B483B000AF78607B68084A82FB03122C
:10140C009210DB17D31A064A1360064B00221A609F
:10141C0000BF0C37BD4680BC704700BF6766666670
:10142C00000100200401002080B483B000AF78607C
:10143C007B68084A82FB03129210DB17D31A064A08
:10144C001360064B00221A6000BF0C37BD4680BCEF
:10145C00704700BF67666666080100200C0100201B
:10146C0080B400AF294B1B68002B0BDD274B1B688E
:10147C00013B264A1360254B1B68002B02DC244BD6
:10148C0001221A60234B1B68002B0BDD214B1B68C0
:10149C00013B204A13601F4B1B68002B02DC1E4BC8
:1014AC0001221A601D4B1B68002B0BDD1B4B1B68AC
:1014BC00013B1A4A1360194B1B68002B02DC184BBA
:1014CC0001221A60174B1B68002B0BDD154B1B6898
:1014DC00013B144A1360134B1B68002B02DC124BAC
:1014EC0001221A60114B1B68002B0BDD0F4B1B6884
:1014FC00013B0E4A13600D4B1B68002B02DC0C4B9E
:10150C0001221A6000BFBD4680BC7047E800002075
:10151C00EC000020F0000020F4000020F800002077
:10152C00FC00002000010020040100200801002024
:10153C000C01002080B483B000AF0E4B9B690D4AA8
:10154C0043F0010393610B4B9B6903F001037B6038
:10155C007B68084BDB69074A43F08053D361054B2A
:10156C00DB6903F080533B603B6800BF0C37BD4622
:10157C0080BC70470010024080B584B000AF78602A
:10158C007B681B68B3F1804F13D10C4BDB690B4AA2
:10159C0043F00103D361094BDB6903F00103FB60EA
:1015AC00FB68002200211C2000F02BFC1C2000F00A
:1015BC0044FC00BF1037BD4680BD00BF0010024088
:1015CC0080B400AFFEE780B400AFFEE780B400AF9C
:1015DC00FEE780B400AFFEE780B400AFFEE780B456
:1015EC0000AF00BFBD4680BC704780B400AF00BFE9
:1015FC00BD4680BC704780B400AF00BFBD4680BC08
:10160C00704780B500AF00F009FB00BF80BD000043
:10161C0080B500AF024801F051FA00BF80BD00BF99
:10162C00A000002080B400AF00BFBD4680BC704756
:10163C0080B500AF894B1B78042B00F2048101A20A
:10164C0052F823F065160008C11600081F17000891
:10165C008B170008E717000801224021804800F092
:10166C009AFD012280217E4800F095FD01224FF465
:10167C0080717B4800F08FFD01224FF40071784897
:10168C0000F089FD01224FF48061754800F083FD64
:10169C0001224FF40061724800F07DFD6F4B012276
:1016AC001A70704B1B68704A1360704B1B68704A41
:1016BC001360D1E001224021694800F06CFD012249
:1016CC008021674800F067FD00224FF48071644868
:1016DC0000F061FD00224FF40071614800F05BFDE9
:1016EC0001224FF480615E4800F055FD01224FF459
:1016FC0000615B4800F04FFD5B4B1B68002B00F357
:10170C00A480564B02221A705A4B1B68564A13601F
:10171C009BE001224021524800F03DFD0022802137
:10172C004F4800F038FD01224FF480714C4800F016
:10173C0032FD00224FF40071494800F02CFD0122CB
:10174C004FF48061464800F026FD01224FF4006101
:10175C00434800F020FD444B1B68002B77DC444BC6
:10176C001B68002B73DC3D4B03221A703F4B1B682C
:10177C003D4A13603B4B1B683D4A136067E00022F7
:10178C004021374800F007FD01228021344800F049
:10179C0002FD01224FF48071314800F0FCFC012263
:1017AC004FF400712E4800F0F6FC01224FF48061DA
:1017BC002B4800F0F0FC00224FF40061284800F0A8
:1017CC00EAFC2B4B1B68002B43DC244B04221A70C5
:1017DC00284B1B68264A13603BE00022402120481E
:1017EC0000F0D9FC012280211D4800F0D4FC01221C
:1017FC004FF480711A4800F0CEFC01224FF40071B6
:10180C00174800F0C8FC00224FF48061144800F027
:10181C00C2FC01224FF40061114800F0BCFC124BD9
:10182C001B68002B17DC124B1B68002B13DC0B4BBB
:10183C0001221A700B4B1B680B4A13600B4B1B6875
:10184C000B4A136007E000BF06E000BF04E000BFD6
:10185C0002E000BF00E000BF00BF80BD1801002007
:10186C00000801404800002010010020400000202A
:10187C00140100204400002080B500AF124B1B68FF
:10188C00012B1FD1114B1B68002B17DD104B1B6854
:10189C00002B13DD0D4B1B68013B0C4A13600B4BEB
:1018AC001B681846FFF760F8094B1B68013B084A98
:1018BC001360074B1B681846FFF77AF84FF47A70E1
:1018CC00FFF796FD00BF80BD040100201001002031
:1018DC001401002080B500AF3B4B1B78042B67D85C
:1018EC0001A252F823F000BF0919000811190008D1
:1018FC00331900085F1900088B190008324B0122BC
:10190C001A705EE0FFF794FEFFF7B6FFFEF764FF78
:10191C00FEF7C6FFFFF770F80346012B4AD12A4B9E
:10192C0002221A7046E0FFF70DFA0220FFF71CF8AE
:10193C00FEF752FF00F04CF8FEF7B2FFFFF75CF831
:10194C000346012B38D100F0DFF81F4B03221A702D
:10195C0032E0FFF795FA0320FFF706F8FEF73CFF9D
:10196C0000F06AF8FEF79CFFFFF746F80346012BE0
:10197C0024D100F0C9F8144B04221A701EE0FFF7B2
:10198C001DFB0420FEF7F0FFFEF726FF00F088F8A1
:10199C00FEF786FFFFF730F80346012B10D10B4BF7
:1019AC0000221A7000F0B0F8074B01221A7007E001
:1019BC0000BF06E000BF04E000BF02E000BF00E093
:1019CC0000BF00BF80BD00BF19010020180100201E
:1019DC0080B500AFFFF784F80346012B0CD1124BF6
:1019EC001B68622B05DC104B1B6801330E4A13601D
:1019FC0002E00D4B00221A60FFF7E6F80346012BBC
:101A0C000AD1094B1B68094A1360094B1A68094B28
:101A1C001B681344054A1360034B1B681846FEF7FA
:101A2C00C7FF00BF80BD00BF4C000020400000205D
:101A3C00440000204800002080B500AFFFF750F8AC
:101A4C000346012B0CD1124B1B68622B05DC104B8F
:101A5C001B6801330E4A136002E00D4B00221A6022
:101A6C00FFF7B2F80346012B0AD1094B1B68094A50
:101A7C001360084B1A68084B1B681344074A136021
:101A8C00034B1B681846FEF793FF00BF80BD00BFD9
:101A9C00500000204400002048000020400000209E
:101AAC0080B500AFFFF71CF80346012B0CD1124B8D
:101ABC001B68622B05DC104B1B6801330E4A13604C
:101ACC0002E00D4B00221A60FFF77EF80346012B53
:101ADC000AD1094B1B68094A1360094B1A68074B5A
:101AEC001B681344074A1360034B1B681846FEF728
:101AFC005FFF00BF80BD00BF5400002048000020E5
:101B0C00440000204000002080B400AF074B1B684D
:101B1C00074A1360074B1B68074A1360074B1B6887
:101B2C00074A136000BFBD4680BC704740000020D0
:101B3C004C000020500000204400002054000020E5
:101B4C0048000020FFF76EFD0B480C490C4A00239F
:101B5C0002E0D458C4500433C4188C42F9D3094A57
:101B6C00094C002301E013600432A242FBD301F0C4
:101B7C00F1FAFFF7C1FA7047000000206000002066
:101B8C00FC3100086000002020010020FEE700006E
:101B9C0080B500AF084B1B68074A43F01003136075
:101BAC00032000F023F90F2000F008F8FFF7C2FC27
:101BBC000023184680BD00BF0020024080B582B0D3
:101BCC0000AF7860124B1A68124B1B7819464FF411
:101BDC007A73B3FBF1F3B2FBF3F3184600F03BF965
:101BEC000346002B01D001230EE07B680F2B0AD893
:101BFC00002279684FF0FF3000F003F9064A7B6849
:101C0C001360002300E0012318460837BD4680BD51
:101C1C003C0000205C0000205800002080B400AF85
:101C2C00054B1B781A46054B1B681344034A13607B
:101C3C0000BFBD4680BC70475C0000201C0100202A
:101C4C0080B400AF024B1B681846BD4680BC704781
:101C5C001C01002080B485B000AF78607B6803F075
:101C6C000703FB600C4BDB68BB60BA684FF6FF03E5
:101C7C001340BB60FB681A02BB68134343F0BF639D
:101C8C0043F40033BB60044ABB68D36000BF143715
:101C9C00BD4680BC704700BF00ED00E080B400AFD3
:101CAC00044BDB681B0A03F007031846BD4680BCD7
:101CBC00704700BF00ED00E080B483B000AF034676
:101CCC00FB7197F90730002B0BDBFB7903F01F023C
:101CDC00064997F907305B09012000FA02F241F836
:101CEC00232000BF0C37BD4680BC704700E100E0EC
:101CFC0080B483B000AF03463960FB7197F90730AD
:101D0C00002B0ADB3B68DAB20C4997F90730120159
:101D1C00D2B20B4483F800230AE03B68DAB20849DC
:101D2C00FB7903F00F03043B1201D2B20B441A7679
:101D3C0000BF0C37BD4680BC704700BF00E100E01F
:101D4C0000ED00E080B489B000AFF860B9607A6053
:101D5C00FB6803F00703FB61FB69C3F10703042B6A
:101D6C0028BF0423BB61FB690433062B02D9FB6932
:101D7C00033B00E000237B614FF0FF32BB6902FAAA
:101D8C0003F3DA43BB681A407B699A404FF0FF318A
:101D9C007B6901FA03F3D9437B680B401343184664
:101DAC002437BD4680BC704780B582B000AF7860E8
:101DBC007B68013BB3F1807F01D301230FE00A4A1A
:101DCC007B68013B53600F214FF0FF30FFF790FF12
:101DDC00054B00229A60044B07221A600023184618
:101DEC000837BD4680BD00BF10E000E080B582B072
:101DFC0000AF78607868FFF72DFF00BF0837BD464D
:101E0C0080BD80B586B000AF0346B9607A60FB73C5
:101E1C0000237B61FFF742FF78617A68B9687869C3
:101E2C00FFF790FF024697F90F3011461846FFF75F
:101E3C005FFF00BF1837BD4680BD80B582B000AFD4
:101E4C000346FB7197F907301846FFF735FF00BFC3
:101E5C000837BD4680BD80B582B000AF7860786829
:101E6C00FFF7A2FF034618460837BD4680BD0000A9
:101E7C0080B48BB000AF7860396000237B620023A4
:101E8C003B6261E101227B6A02FA03F3FB613B686E
:101E9C001B68FA691340BB61BA69FB699A4240F04E
:101EAC0050813B685B68974A93425ED0954A934257
:101EBC0075D8954A934258D0934A93426FD8934A17
:101ECC00934252D0914A934269D8914A93424CD052
:101EDC008F4A934263D88F4A934246D08D4A93429D
:101EEC005DD8122B2AD8122B59D801A252F823F004
:101EFC00771F0008511F0008631F0008A51F00086A
:101F0C00AB1F0008AB1F0008AB1F0008AB1F00087D
:101F1C00AB1F0008AB1F0008AB1F0008AB1F00086D
:101F2C00AB1F0008AB1F0008AB1F0008AB1F00085D
:101F3C00AB1F0008591F00086D1F0008764A93421A
:101F4C0013D02CE03B68DB683B6229E03B68DB6824
:101F5C0004333B6224E03B68DB6808333B621FE0E0
:101F6C003B68DB680C333B621AE03B689B68002BD8
:101F7C0002D104233B6213E03B689B68012B05D123
:101F8C0008233B627B68FA691A6109E008233B620B
:101F9C007B68FA695A6103E000233B6200E000BFF2
:101FAC00BB69FF2B01D87B6801E07B6804337B6144
:101FBC00BB69FF2B02D87B6A9B0002E07B6A083B63
:101FCC009B003B617B691A680F213B6901FA03F3A3
:101FDC00DB431A40396A3B6901FA03F31A437B6904
:101FEC001A603B685B6803F08053002B00F0A980FB
:101FFC004A4B9B69494A43F001039361474B9B69E8
:10200C0003F00103BB60BB68454A7B6A9B08023343
:10201C0052F82330FB607B6A03F003039B000F2212
:10202C0002FA03F3DB43FA681340FB607B683D4A1A
:10203C0093420DD07B683C4A934207D07B683B4A65
:10204C00934201D1022304E0032302E0012300E0C8
:10205C0000237A6A02F0030292009340FA68134359
:10206C00FB602F497B6A9B080233FA6841F82320F6
:10207C003B685B6803F48013002B06D02C4B9A68EA
:10208C002B49BB6913438B6006E0294B9A68BB69EB
:10209C00DB43274913408B603B685B6803F40013F8
:1020AC00002B06D0224BDA682149BB691343CB6065
:1020BC0006E01F4BDA68BB69DB431D491340CB605C
:1020CC003B685B6803F40033002B06D0184B5A684E
:1020DC001749BB6913434B6006E0154B5A68BB6943
:1020EC00DB43134913404B603B685B6803F480335C
:1020FC00002B1FD00E4B1A680D49BB6913430B60A4
:10210C001FE000BF00003210000031100000221050
:10211C0000002110000012100000111000100240ED
:10212C000000014000080140000C0140001001407B
:10213C00000401400B4B1A68BB69DB43094913408F
:10214C000B607B6A01337B623B681A687B6A22FAFC
:10215C0003F3002B7FF496AE00BF00BF2C37BD46B7
:10216C0080BC70470004014080B485B000AF78603B
:10217C000B467B807B689A687B881340002B02D0CF
:10218C000123FB7301E00023FB73FB7B1846143720
:10219C00BD4680BC704780B483B000AF78600B46FE
:1021AC007B8013467B707B78002B03D07A887B680E
:1021BC001A6103E07B881A047B681A6100BF0C3734
:1021CC00BD4680BC7047000080B586B000AF78601B
:1021DC007B68002B01D1012372E27B681B6803F042
:1021EC000103002B00F08780924B5B6803F00C031B
:1021FC00042B0CD08F4B5B6803F00C03082B12D113
:10220C008C4B5B6803F48033B3F5803F0BD1894B67
:10221C001B6803F40033002B6CD07B685B68002BCD
:10222C0068D101234CE27B685B68B3F5803F06D133
:10223C00804B1B687F4A43F4803313602EE07B682D
:10224C005B68002B0CD17B4B1B687A4A23F48033E0
:10225C001360784B1B68774A23F4802313601DE0CE
:10226C007B685B68B3F5A02F0CD1724B1B68714A6D
:10227C0043F4802313606F4B1B686E4A43F4803326
:10228C0013600BE06B4B1B686A4A23F480331360BA
:10229C00684B1B68674A23F4802313607B685B6878
:1022AC00002B13D0FFF7CCFC386108E0FFF7C8FC1B
:1022BC0002463B69D31A642B01D9032300E25D4B20
:1022CC001B6803F40033002BF0D014E0FFF7B8FCCC
:1022DC00386108E0FFF7B4FC02463B69D31A642B63
:1022EC0001D90323ECE1534B1B6803F40033002B9F
:1022FC00F0D100E000BF7B681B6803F00203002BE9
:10230C0063D04C4B5B6803F00C03002B0BD0494B98
:10231C005B6803F00C03082B1CD1464B5B6803F481
:10232C008033002B16D1434B1B6803F00203002BA8
:10233C0005D07B681B69012B01D00123C0E13D4B0B
:10234C001B6823F0F8027B685B69DB003949134397
:10235C000B603AE07B681B69002B20D0364B0122C6
:10236C001A60FFF76DFC386108E0FFF769FC024664
:10237C003B69D31A022B01D90323A1E12D4B1B6816
:10238C0003F00203002BF0D02A4B1B6823F0F80259
:10239C007B685B69DB00274913430B6015E0264B18
:1023AC0000221A60FFF74CFC386108E0FFF748FC8C
:1023BC0002463B69D31A022B01D9032380E11D4B42
:1023CC001B6803F00203002BF0D17B681B6803F041
:1023DC000803002B3AD07B689B69002B19D0174B54
:1023EC0001221A60FFF72CFC386108E0FFF728FC8B
:1023FC0002463B69D31A022B01D9032360E10D4B32
:10240C005B6A03F00203002BF0D0012000F09CFA71
:10241C001CE00A4B00221A60FFF712FC38610FE037
:10242C00FFF70EFC02463B69D31A022B08D9032393
:10243C0046E100BF001002400000424280044242CC
:10244C00924B5B6A03F00203002BE9D17B681B689B
:10245C0003F00403002B00F0A6800023FB758B4BCC
:10246C00DB6903F08053002B0DD1884BDB69874A65
:10247C0043F08053D361854BDB6903F08053BB6021
:10248C00BB680123FB75824B1B6803F48073002B24
:10249C0018D17F4B1B687E4A43F480731360FFF79F
:1024AC00CFFB386108E0FFF7CBFB02463B69D31A40
:1024BC00642B01D9032303E1754B1B6803F4807370
:1024CC00002BF0D07B68DB68012B06D16F4B1B6AAD
:1024DC006E4A43F0010313622DE07B68DB68002B2E
:1024EC000CD16A4B1B6A694A23F001031362674BD8
:1024FC001B6A664A23F0040313621CE07B68DB68EA
:10250C00052B0CD1614B1B6A604A43F00403136228
:10251C005E4B1B6A5D4A43F0010313620BE05B4B9D
:10252C001B6A5A4A23F001031362584B1B6A574A21
:10253C0023F0040313627B68DB68002B15D0FFF7D4
:10254C007FFB38610AE0FFF77BFB02463B69D31A3D
:10255C0041F28832934201D90323B1E04B4B1B6A01
:10256C0003F00203002BEED014E0FFF769FB386197
:10257C000AE0FFF765FB02463B69D31A41F2883249
:10258C00934201D903239BE0404B1B6A03F00203E7
:10259C00002BEED1FB7D012B05D13C4BDB693B4A7B
:1025AC0023F08053D3617B68DB69002B00F08780BC
:1025BC00364B5B6803F00C03082B61D07B68DB693E
:1025CC00022B46D1334B00221A60FFF739FB3861DE
:1025DC0008E0FFF735FB02463B69D31A022B01D901
:1025EC0003236DE0294B1B6803F00073002BF0D123
:1025FC007B681B6AB3F5803F08D1244B5B6823F4DE
:10260C0000327B689B68214913434B601F4B5B680E
:10261C0023F474127B68196A7B685B6A0B431B4951
:10262C0013434B601B4B01221A60FFF709FB386107
:10263C0008E0FFF705FB02463B69D31A022B01D9D0
:10264C0003233DE0114B1B6803F00073002BF0D00B
:10265C0035E0104B00221A60FFF7F2FA386108E0FF
:10266C00FFF7EEFA02463B69D31A022B01D903237A
:10267C0026E0064B1B6803F00073002BF0D11EE024
:10268C007B68DB69012B07D1012319E000100240A4
:10269C0000700040600042420B4B5B68FB60FB68C3
:1026AC0003F480327B681B6A9A4206D1FB6803F400
:1026BC0070127B685B6A9A4201D0012300E0002310
:1026CC0018461837BD4680BD0010024080B584B056
:1026DC0000AF786039607B68002B01D10123D0E01A
:1026EC006A4B1B6803F007033A689A4210D9674B90
:1026FC001B6823F0070265493B6813430B60634B6F
:10270C001B6803F007033A689A4201D00123B8E032
:10271C007B681B6803F00203002B20D07B681B68CE
:10272C0003F00403002B05D0594B5B68584A43F463
:10273C00E06353607B681B6803F00803002B05D033
:10274C00534B5B68524A43F460535360504B5B6885
:10275C0023F0F0027B689B684D4913434B607B6808
:10276C001B6803F00103002B40D07B685B68012BD6
:10277C0007D1474B1B6803F40033002B15D1012301
:10278C007FE07B685B68022B07D1414B1B6803F031
:10279C000073002B09D1012373E03D4B1B6803F040
:1027AC000203002B01D101236BE0394B5B6823F052
:1027BC0003027B685B68364913434B60FFF740FAB2
:1027CC00F8600AE0FFF73CFA0246FB68D31A41F2C4
:1027DC008832934201D9032353E02D4B5B6803F0FD
:1027EC000C027B685B689B009A42EBD1274B1B6801
:1027FC0003F007033A689A4210D2244B1B6823F06B
:10280C00070222493B6813430B60204B1B6803F003
:10281C0007033A689A4201D0012332E07B681B68B7
:10282C0003F00403002B08D0194B5B6823F4E0621F
:10283C007B68DB68164913434B607B681B6803F0AD
:10284C000803002B09D0124B5B6823F460527B68A1
:10285C001B69DB000E4913434B6000F021F8024664
:10286C000B4B5B681B0903F00F030A49CB5C22FA84
:10287C0003F3094A1360094B1B681846FFF79EF9CE
:10288C00002318461037BD4680BD00BF0020024013
:10289C0000100240D03100083C00002058000020FD
:1028AC0080B487B000AF0023FB600023BB60002323
:1028BC007B6100237B6000233B611E4B5B68FB60EC
:1028CC00FB6803F00C03042B02D0082B03D027E089
:1028DC00194B3B6127E0FB689B0C03F00F03174A75
:1028EC00D35C7B60FB6803F48033002B10D0114B5E
:1028FC005B685B0C03F00103114AD35CBB607B6823
:10290C000D4A03FB02F2BB68B2FBF3F37B6104E0FC
:10291C007B680C4A02FB03F37B617B693B6102E041
:10292C00054B3B6100BF3B6918461C37BD4680BC5C
:10293C00704700BF0010024000127A00E03100081E
:10294C00F031000800093D0080B485B000AF78601C
:10295C000A4B1B680A4AA2FB03235B0A7A6802FB38
:10296C0003F3FB6000BFFB685A1EFA60002BF9D121
:10297C0000BF00BF1437BD4680BC70473C00002030
:10298C00D34D621080B582B000AF78607B68002BAD
:10299C0001D1012341E07B6893F83D30DBB2002B81
:1029AC0006D17B68002283F83C207868FEF7E4FDB2
:1029BC007B68022283F83D207B681A687B680433AD
:1029CC001946104600F06EFA7B68012283F8462007
:1029DC007B68012283F83E207B68012283F83F202C
:1029EC007B68012283F840207B68012283F8412018
:1029FC007B68012283F842207B68012283F8432004
:102A0C007B68012283F844207B68012283F84520EF
:102A1C007B68012283F83D20002318460837BD4609
:102A2C0080BD000080B485B000AF78607B6893F8FF
:102A3C003D30DBB2012B01D0012335E07B68022253
:102A4C0083F83D207B681B68DA687B681B6842F062
:102A5C000102DA607B681B68164A934209D07B68D6
:102A6C001B68B3F1804F04D07B681B68124A9342F9
:102A7C0011D17B681B689B6803F00703FB60FB6844
:102A8C00062B10D07B681B681A687B681B6842F0A9
:102A9C0001021A6007E07B681B681A687B681B6878
:102AAC0042F001021A60002318461437BD4680BC60
:102ABC00704700BF002C01400004004080B582B07C
:102ACC0000AF78607B681B681B6903F00203022B64
:102ADC0022D17B681B68DB6803F00203022B1BD13D
:102AEC007B681B686FF002021A617B6801221A77FF
:102AFC007B681B689B6903F00303002B03D0786889
:102B0C0000F0B4F905E0786800F0A7F9786800F0F7
:102B1C00B6F97B6800221A777B681B681B6903F087
:102B2C000403042B22D17B681B68DB6803F00403CD
:102B3C00042B1BD17B681B686FF004021A617B6845
:102B4C0002221A777B681B689B6903F44073002B85
:102B5C0003D0786800F08AF905E0786800F07DF918
:102B6C00786800F08CF97B6800221A777B681B6808
:102B7C001B6903F00803082B22D17B681B68DB68F8
:102B8C0003F00803082B1BD17B681B686FF008024D
:102B9C001A617B6804221A777B681B68DB6903F077
:102BAC000303002B03D0786800F060F905E0786827
:102BBC0000F053F9786800F062F97B6800221A770C
:102BCC007B681B681B6903F01003102B22D17B68F8
:102BDC001B68DB6803F01003102B1BD17B681B6890
:102BEC006FF010021A617B6808221A777B681B68E9
:102BFC00DB6903F44073002B03D0786800F036F9DE
:102C0C0005E0786800F029F9786800F038F97B68FD
:102C1C0000221A777B681B681B6903F00103012BE8
:102C2C000ED17B681B68DB6803F00103012B07D115
:102C3C007B681B686FF001021A617868FEF76EFB07
:102C4C007B681B681B6903F08003802B0ED17B68AB
:102C5C001B68DB6803F08003802B07D17B681B6843
:102C6C006FF080021A61786800F06BFA7B681B6861
:102C7C001B6903F04003402B0ED17B681B68DB689B
:102C8C0003F04003402B07D17B681B686FF04002B8
:102C9C001A61786800F0FCF87B681B681B6903F00C
:102CAC002003202B0ED17B681B68DB6803F020030C
:102CBC00202B07D17B681B686FF020021A617868A3
:102CCC0000F036FA00BF0837BD4680BD80B584B031
:102CDC0000AF786039600023FB737B6893F83C305D
:102CEC00012B01D10223B4E07B68012283F83C2044
:102CFC007B68022283F83D207B681B689B68BB6065
:102D0C00BB6823F07703BB60BB6823F47F43BB60D5
:102D1C007B681B68BA689A603B681B68B3F5005FF8
:102D2C003ED0B3F5005F00F28780B3F5805F00F012
:102D3C008680B3F5805F7FD8702B1AD0702B7BD830
:102D4C00602B50D0602B77D8502B3CD0502B73D8A5
:102D5C00402B58D0402B6FD8302B64D0302B6BD8F5
:102D6C00202B60D0202B67D8002B5CD0102B5AD096
:102D7C0062E07B6818683B6899683B685A683B68F6
:102D8C00DB6800F05EF97B681B689B68BB60BB6806
:102D9C0043F07703BB607B681B68BA689A604FE0AE
:102DAC007B6818683B6899683B685A683B68DB68C5
:102DBC0000F047F97B681B689A687B681B6842F4D3
:102DCC0080429A603CE07B6818683B6859683B68B5
:102DDC00DB681A4600F0BEF87B681B685021184669
:102DEC0000F015F92CE07B6818683B6859683B6863
:102DFC00DB681A4600F0DCF87B681B68602118461B
:102E0C0000F005F91CE07B6818683B6859683B6862
:102E1C00DB681A4600F09EF87B681B684021184658
:102E2C0000F0F5F80CE07B681A683B681B681946E3
:102E3C00104600F0ECF803E00123FB7300E000BF48
:102E4C007B68012283F83D207B68002283F83C20BC
:102E5C00FB7B18461037BD4680BD80B483B000AFF5
:102E6C00786000BF0C37BD4680BC704780B483B01F
:102E7C0000AF786000BF0C37BD4680BC704780B493
:102E8C0083B000AF786000BF0C37BD4680BC704784
:102E9C0080B483B000AF786000BF0C37BD4680BCF7
:102EAC007047000080B485B000AF786039607B68F3
:102EBC001B68FB607B68254A934207D07B68B3F1A3
:102ECC00804F03D07B68224A934208D1FB6823F0E1
:102EDC007003FB603B685B68FA681343FB607B68BC
:102EEC001A4A934207D07B68B3F1804F03D07B68BA
:102EFC00174A934208D1FB6823F44073FB603B688C
:102F0C00DB68FA681343FB60FB6823F080023B68C4
:102F1C005B691343FB607B68FA681A603B689A68CC
:102F2C007B68DA623B681A687B689A627B68074A3E
:102F3C00934203D13B681A697B681A637B68012250
:102F4C005A6100BF1437BD4680BC7047002C01404D
:102F5C000004004080B487B000AFF860B9607A60BC
:102F6C00FB681B6A7B61FB681B6A23F00102FB6830
:102F7C001A62FB689B693B613B6923F0F0033B6180
:102F8C007B681B013A6913433B617B6923F00A039D
:102F9C007B617A69BB6813437B61FB683A699A6110
:102FAC00FB687A691A6200BF1C37BD4680BC70474B
:102FBC0080B487B000AFF860B9607A60FB681B6AB8
:102FCC007B61FB681B6A23F01002FB681A62FB68CA
:102FDC009B693B613B6923F470433B617B681B033A
:102FEC003A6913433B617B6923F0A0037B61BB68A7
:102FFC001B017A6913437B61FB683A699A61FB6830
:10300C007A691A6200BF1C37BD4680BC704780B419
:10301C0085B000AF786039607B689B68FB60FB68AB
:10302C0023F07003FB603A68FB68134343F007031B
:10303C00FB607B68FA689A6000BF1437BD4680BCA1
:10304C00704780B487B000AFF860B9607A603B60BD
:10305C00FB689B687B617B6923F47F437B613B68E6
:10306C001A027B681A43BB6813437A6913437B616A
:10307C00FB687A699A6000BF1C37BD4680BC7047FC
:10308C0080B485B000AF786039607B6893F83C30D1
:10309C00012B01D1022341E07B68012283F83C2003
:1030AC007B68022283F83D207B681B685B68FB60B1
:1030BC007B681B689B68BB60FB6823F07003FB603C
:1030CC003B681B68FA681343FB607B681B68FA68F3
:1030DC005A607B681B68144A934209D07B681B6852
:1030EC00B3F1804F04D07B681B68104A93420CD11B
:1030FC00BB6823F08003BB603B685B68BA68134312
:10310C00BB607B681B68BA689A607B68012283F895
:10311C003D207B68002283F83C200023184614379E
:10312C00BD4680BC704700BF002C0140000400402D
:10313C0080B483B000AF786000BF0C37BD4680BC54
:10314C00704780B483B000AF786000BF0C37BD46C9
:10315C0080BC704770B500260C4D0D4C641BA41040
:10316C00A64209D100F022F800260A4D0A4C641B35
:10317C00A410A64205D170BD55F8043B9847013602
:10318C00EEE755F8043B98470136F2E7F4310008B6
:10319C00F4310008F4310008F83100080346024409
:1031AC00934200D1704703F8011BF9E7F8B500BF53
:1031BC00F8BC08BC9E467047F8B500BFF8BC08BC0C
:0431CC009E46704764
:1031D00000000000000000000102030406070809C7
:1031E00002030405060708090A0B0C0D0E0F101048
:0431F00001020000D8
:0431F400310100089D
:0431F8000D010008BD
:1031FC0001000000010000000100000001000000BF
:10320C00F4010000010000000100000001000000BA
:10321C0001000000F40100000100000001000000AA
:10322C000100000001000000F40100000024F40083
:10323C000500000002000000030000000500000073
:10324C00020000000300000010000000010000005C
:0400000508001B5183
:00000001FF
